{
  "contractName": "Faucet",
  "abi": [
    {
      "inputs": [],
      "name": "numOfFunders",
      "outputs": [
        {
          "internalType": "uint256",
          "name": "",
          "type": "uint256"
        }
      ],
      "stateMutability": "view",
      "type": "function",
      "constant": true
    },
    {
      "inputs": [],
      "name": "owner",
      "outputs": [
        {
          "internalType": "address",
          "name": "",
          "type": "address"
        }
      ],
      "stateMutability": "view",
      "type": "function",
      "constant": true
    },
    {
      "stateMutability": "payable",
      "type": "receive",
      "payable": true
    },
    {
      "inputs": [],
      "name": "addFunds",
      "outputs": [],
      "stateMutability": "payable",
      "type": "function",
      "payable": true
    },
    {
      "inputs": [
        {
          "internalType": "address",
          "name": "newOwner",
          "type": "address"
        }
      ],
      "name": "transferOwnerShip",
      "outputs": [],
      "stateMutability": "nonpayable",
      "type": "function"
    },
    {
      "inputs": [
        {
          "internalType": "uint256",
          "name": "amount",
          "type": "uint256"
        }
      ],
      "name": "withdraw",
      "outputs": [],
      "stateMutability": "nonpayable",
      "type": "function"
    },
    {
      "inputs": [
        {
          "internalType": "uint8",
          "name": "i",
          "type": "uint8"
        }
      ],
      "name": "getFundersAtIndex",
      "outputs": [
        {
          "internalType": "address",
          "name": "",
          "type": "address"
        }
      ],
      "stateMutability": "view",
      "type": "function",
      "constant": true
    },
    {
      "inputs": [],
      "name": "getAllFunders",
      "outputs": [
        {
          "internalType": "address[]",
          "name": "",
          "type": "address[]"
        }
      ],
      "stateMutability": "view",
      "type": "function",
      "constant": true
    },
    {
      "inputs": [],
      "name": "emitLog",
      "outputs": [
        {
          "internalType": "bytes32",
          "name": "",
          "type": "bytes32"
        }
      ],
      "stateMutability": "pure",
      "type": "function",
      "constant": true
    }
  ],
  "bytecode": "0x608060405234801561001057600080fd5b50336000806101000a81548173ffffffffffffffffffffffffffffffffffffffff021916908373ffffffffffffffffffffffffffffffffffffffff160217905550610b4c806100606000396000f3fe60806040526004361061007f5760003560e01c8063a26759cb1161004e578063a26759cb14610133578063af7f2c9b1461013d578063f388b26614610168578063f42c13bf146101a557610086565b80632e1a7d4d1461008b5780636fbbb55d146100b45780638863dd1a146100df5780638da5cb5b1461010857610086565b3661008657005b600080fd5b34801561009757600080fd5b506100b260048036038101906100ad91906106ac565b6101d0565b005b3480156100c057600080fd5b506100c96102f5565b6040516100d691906107c9565b60405180910390f35b3480156100eb57600080fd5b5061010660048036038101906101019190610817565b6103ef565b005b34801561011457600080fd5b5061011d6104c0565b60405161012a9190610853565b60405180910390f35b61013b6104e4565b005b34801561014957600080fd5b50610152610603565b60405161015f919061087d565b60405180910390f35b34801561017457600080fd5b5061018f600480360381019061018a91906108d1565b610609565b60405161019c9190610853565b60405180910390f35b3480156101b157600080fd5b506101ba610649565b6040516101c79190610917565b60405180910390f35b80670de0b6b3a764000081111561021c576040517f08c379a0000000000000000000000000000000000000000000000000000000008152600401610213906109b5565b60405180910390fd5b60008054906101000a900473ffffffffffffffffffffffffffffffffffffffff1673ffffffffffffffffffffffffffffffffffffffff163373ffffffffffffffffffffffffffffffffffffffff16146102aa576040517f08c379a00000000000000000000000000000000000000000000000000000000081526004016102a190610a21565b60405180910390fd5b3373ffffffffffffffffffffffffffffffffffffffff166108fc839081150290604051600060405180830381858888f193505050501580156102f0573d6000803e3d6000fd5b505050565b6060600060035467ffffffffffffffff81111561031557610314610a41565b5b6040519080825280602002602001820160405280156103435781602001602082028036833780820191505090505b50905060005b6003548110156103e7576002600082815260200190815260200160002060009054906101000a900473ffffffffffffffffffffffffffffffffffffffff1682828151811061039a57610399610a70565b5b602002602001019073ffffffffffffffffffffffffffffffffffffffff16908173ffffffffffffffffffffffffffffffffffffffff168152505080806103df90610ace565b915050610349565b508091505090565b60008054906101000a900473ffffffffffffffffffffffffffffffffffffffff1673ffffffffffffffffffffffffffffffffffffffff163373ffffffffffffffffffffffffffffffffffffffff161461047d576040517f08c379a000000000000000000000000000000000000000000000000000000000815260040161047490610a21565b60405180910390fd5b806000806101000a81548173ffffffffffffffffffffffffffffffffffffffff021916908373ffffffffffffffffffffffffffffffffffffffff16021790555050565b60008054906101000a900473ffffffffffffffffffffffffffffffffffffffff1681565b6000339050600160008273ffffffffffffffffffffffffffffffffffffffff1673ffffffffffffffffffffffffffffffffffffffff16815260200190815260200160002060009054906101000a900460ff166106005760006003600081548092919061054f90610ace565b91905055905060018060008473ffffffffffffffffffffffffffffffffffffffff1673ffffffffffffffffffffffffffffffffffffffff16815260200190815260200160002060006101000a81548160ff021916908315150217905550816002600083815260200190815260200160002060006101000a81548173ffffffffffffffffffffffffffffffffffffffff021916908373ffffffffffffffffffffffffffffffffffffffff160217905550505b50565b60035481565b6000600260008360ff16815260200190815260200160002060009054906101000a900473ffffffffffffffffffffffffffffffffffffffff169050919050565b60007f48656c6c6f20576f726c64000000000000000000000000000000000000000000905090565b600080fd5b6000819050919050565b61068981610676565b811461069457600080fd5b50565b6000813590506106a681610680565b92915050565b6000602082840312156106c2576106c1610671565b5b60006106d084828501610697565b91505092915050565b600081519050919050565b600082825260208201905092915050565b6000819050602082019050919050565b600073ffffffffffffffffffffffffffffffffffffffff82169050919050565b600061073082610705565b9050919050565b61074081610725565b82525050565b60006107528383610737565b60208301905092915050565b6000602082019050919050565b6000610776826106d9565b61078081856106e4565b935061078b836106f5565b8060005b838110156107bc5781516107a38882610746565b97506107ae8361075e565b92505060018101905061078f565b5085935050505092915050565b600060208201905081810360008301526107e3818461076b565b905092915050565b6107f481610725565b81146107ff57600080fd5b50565b600081359050610811816107eb565b92915050565b60006020828403121561082d5761082c610671565b5b600061083b84828501610802565b91505092915050565b61084d81610725565b82525050565b60006020820190506108686000830184610844565b92915050565b61087781610676565b82525050565b6000602082019050610892600083018461086e565b92915050565b600060ff82169050919050565b6108ae81610898565b81146108b957600080fd5b50565b6000813590506108cb816108a5565b92915050565b6000602082840312156108e7576108e6610671565b5b60006108f5848285016108bc565b91505092915050565b6000819050919050565b610911816108fe565b82525050565b600060208201905061092c6000830184610908565b92915050565b600082825260208201905092915050565b7f63616e6e6f742077697468726177206d6f7265207468616e20302e312065746860008201527f6572000000000000000000000000000000000000000000000000000000000000602082015250565b600061099f602283610932565b91506109aa82610943565b604082019050919050565b600060208201905081810360008301526109ce81610992565b9050919050565b7f6f6e6c79206f776e65722061636365737320746869732066756e6374696f6e00600082015250565b6000610a0b601f83610932565b9150610a16826109d5565b602082019050919050565b60006020820190508181036000830152610a3a816109fe565b9050919050565b7f4e487b7100000000000000000000000000000000000000000000000000000000600052604160045260246000fd5b7f4e487b7100000000000000000000000000000000000000000000000000000000600052603260045260246000fd5b7f4e487b7100000000000000000000000000000000000000000000000000000000600052601160045260246000fd5b6000610ad982610676565b91507fffffffffffffffffffffffffffffffffffffffffffffffffffffffffffffffff8203610b0b57610b0a610a9f565b5b60018201905091905056fea26469706673582212205013453fd428c22de9ba5c752fea6c981e19013140e1eccfb2f9f6075dc551e764736f6c634300080d0033",
  "immutableReferences": {},
  "source": "// SPDX-License-Identifier: MIT\n\npragma solidity ^0.8.13;\n\nimport \"./Owned.sol\";\nimport \"./Logger.sol\";\nimport \"./IFaucet.sol\";\n\ncontract Faucet is Owned, Logger, IFaucet\n{\n    mapping (address => bool) private funders;\n    mapping (uint => address) private lutFunders;\n\n    uint public numOfFunders;\n    \n    modifier limitWithdraw(uint amount)\n    {\n        require(amount <= 1000000000000000000,\"cannot withraw more than 0.1 ether\");\n        _;\n    }\n\n    receive () external payable {}\n\n    function addFunds () external override payable {\n        address funder = msg.sender;\n        if (!funders[funder])\n        {\n            uint index = numOfFunders++;\n            funders[funder] = true;\n            lutFunders[index] = funder;\n        }\n    }\n\n    function transferOwnerShip (address newOwner) external onlyOwner {\n        owner = newOwner;\n    }\n\n    function withdraw (uint amount) external override limitWithdraw(amount) onlyOwner\n    {\n        payable(msg.sender).transfer(amount);\n    }\n\n    function getFundersAtIndex(uint8 i)external view returns(address) {\n        return lutFunders[i];\n    }\n\n\n    function getAllFunders () external view returns(address [] memory)\n    {\n        address [] memory _funder = new address[](numOfFunders);\n        for (uint i = 0 ; i < numOfFunders; i ++)\n        {\n            _funder[i] = lutFunders[i];\n        }\n        return _funder;\n\n    }\n    function emitLog () external pure override returns(bytes32)\n    {\n        return \"Hello World\";\n    }\n}\n\n// const instance = await Faucet.deployed()\n// instance.addFunds ({value : \"1000000000000000000\", from : accounts[0]})\n// instance.withdraw(\"100000000000000000\", {from : accounts[0]})\n",
  "sourcePath": "/Users/soheilvafaei/Documents/project/web/web3/ex7/contracts/FaucetContract.sol",
  "compiler": {
    "name": "solc",
    "version": "0.8.13+commit.abaa5c0e.Emscripten.clang"
  },
  "schemaVersion": "3.4.9",
  "updatedAt": "2022-09-12T11:49:13.903Z",
  "networkType": "ethereum",
  "devdoc": {
    "kind": "dev",
    "methods": {},
    "version": 1
  },
  "userdoc": {
    "kind": "user",
    "methods": {},
    "version": 1
  }
}